:020000040800F2
:100000000000052029BD00082D8A0008318A00085B
:100010005D8A00085F8A0008618A0008000000000D
:1000200000000000000000000000000081620008E5
:10003000638A00080000000021630008856300084F
:1000400079BD000879BD000879BD000879BD0008B8
:1000500079BD000879BD000879BD000879BD0008A8
:1000600079BD000879BD000879BD000879BD000898
:1000700079BD000879BD000879BD000879BD000888
:10008000658A0008758A000879BD000879BD0008F6
:1000900079BD000879BD000879BD0008858A00088F
:1000A000918A0008A98A0008B98A0008C98A00084C
:1000B00079BD000879BD0008D98A000879BD00081B
:1000C00079BD000879BD000879BD000879BD000838
:1000D00079BD0008E98A0008F98A000879BD00089E
:1000E00079BD000879BD000879BD0008098B0008BA
:1000F000218B0008318B0008498B000879BD00086E
:1001000079BD000879BD0008598B000879BD000849
:1001100079BD000879BD0008698B000879BD000829
:1001200079BD000879BD000879BD000879BD0008D7
:1001300079BD000879BD000879BD000879BD0008C7
:1001400079BD000879BD000879BD000879BD0008B7
:1001500079BD000879BD0008798B000879BD0008D9
:1001600079BD000879BD000879BD000879BD000897
:1001700079BD000879BD000879BD000800000000C5
:1001800079BD000879BD000879BD000879BD000877
:1001900079BD000879BD000879BD000879BD000867
:1001A00079BD000879BD000879BD000879BD000857
:1001B00079BD000879BD000879BD000879BD000847
:0801C00079BD000879BD0008BB
:1001D00010B5054C237833B9044B13B10448AFF381
:1001E00000800123237010BD1804002000000000CF
:1001F0008009010808B5034B1BB103490348AFF35D
:10020000008008BD000000001C04002080090108D7
:1002100081F0004102E000BF83F0004330B54FEAB7
:1002200041044FEA430594EA050F08BF90EA020F24
:100230001FBF54EA000C55EA020C7FEA645C7FEAB7
:10024000655C00F0E2804FEA5454D4EB5555B8BFDA
:100250006D420CDD2C4480EA020281EA030382EA4B
:10026000000083EA010180EA020281EA0303362DDD
:1002700088BF30BD11F0004F4FEA01314FF4801CB0
:100280004CEA113102D0404261EB410113F0004FC2
:100290004FEA03334CEA133302D0524263EB430379
:1002A00094EA050F00F0A780A4F10104D5F1200E17
:1002B0000DDB02FA0EFC22FA05F2801841F1000172
:1002C00003FA0EF2801843FA05F359410EE0A5F146
:1002D00020050EF1200E012A03FA0EFC28BF4CF077
:1002E000020C43FA05F3C01851EBE37101F000452D
:1002F00007D54FF0000EDCF1000C7EEB00006EEB3A
:100300000101B1F5801F1BD3B1F5001F0CD34908C3
:100310005FEA30004FEA3C0C04F101044FEA44521A
:1003200012F5800F80F09A80BCF1004F08BF5FEAA1
:10033000500C50F1000041EB045141EA050130BD81
:100340005FEA4C0C404141EB010111F4801FA4F124
:100350000104E9D191F0000F04BF01460020B1FA79
:1003600081F308BF2033A3F10B03B3F120020CDAB1
:100370000C3208DD02F1140CC2F10C0201FA0CF08F
:1003800021FA02F10CE002F11402D8BFC2F1200CF4
:1003900001FA02F120FA0CFCDCBF41EA0C019040AA
:1003A000E41AA2BF01EB0451294330BD6FEA0404F3
:1003B0001F3C1CDA0C340EDC04F11404C4F12002DE
:1003C00020FA04F001FA02F340EA030021FA04F3F0
:1003D00045EA030130BDC4F10C04C4F1200220FA47
:1003E00002F001FA04F340EA0300294630BD21FA85
:1003F00004F0294630BD94F0000F83F4801306BF4B
:1004000081F480110134013D4EE77FEA645C18BF3E
:100410007FEA655C29D094EA050F08BF90EA020FD5
:1004200005D054EA000C04BF1946104630BD91EACD
:10043000030F1EBF0021002030BD5FEA545C05D1D0
:100440004000494128BF41F0004130BD14F580040F
:100450003CBF01F5801130BD01F0004545F0FE4183
:1004600041F470014FF0000030BD7FEA645C1ABFB8
:10047000194610467FEA655C1CBF0B46024650EAEF
:10048000013406BF52EA033591EA030F41F400211B
:1004900030BD00BF90F0000F04BF0021704730B5A1
:1004A0004FF4806404F132044FF000054FF0000176
:1004B00050E700BF90F0000F04BF0021704730B537
:1004C0004FF4806404F1320410F0004548BF40420C
:1004D0004FF000013EE700BF42004FEAE2014FEA61
:1004E00031014FEA02701FBF12F07F4393F07F4F3C
:1004F00081F06051704732F07F4208BF704793F03F
:100500007F4F04BF41F40021704730B54FF4607451
:1005100001F0004521F000411CE700BF50EA010254
:1005200008BF704730B54FF000050AE050EA0102FD
:1005300008BF704730B511F0004502D5404261EB6D
:1005400041014FF4806404F132045FEA915C3FF4AE
:10055000D8AE4FF003025FEADC0C18BF03325FEA4B
:10056000DC0C18BF033202EBDC02C2F1200300FAFC
:1005700003FC20FA02F001FA03FE40EA0E0021FA21
:1005800002F11444BDE600BF70B54FF0FF0C4CF40F
:10059000E06C1CEA11541DBF1CEA135594EA0C0FC1
:1005A00095EA0C0F00F0DEF82C4481EA030621EAFC
:1005B0004C5123EA4C5350EA013518BF52EA033537
:1005C00041F4801143F4801338D0A0FB02CE4FF0E9
:1005D0000005E1FB02E506F00042E0FB03E54FF019
:1005E0000006E1FB03569CF0000F18BF4EF0010E11
:1005F000A4F1FF04B6F5007F64F5407404D25FEA0D
:100600004E0E6D4146EB060642EAC62141EA5551BF
:100610004FEAC52040EA5E504FEACE2EB4F1FD0C01
:1006200088BFBCF5E06F1ED8BEF1004F08BF5FEA7F
:10063000500E50F1000041EB045170BD06F0004631
:1006400046EA010140EA020081EA0301B4EB5C04DE
:10065000C2BFD4EB0C0541EA045170BD41F48011D6
:100660004FF0000E013C00F3AB8014F1360FDEBFFB
:10067000002001F0004170BDC4F10004203C35DAD7
:100680000C341BDC04F11404C4F1200500FA05F35A
:1006900020FA04F001FA05F240EA020001F00042FB
:1006A00021F0004110EBD37021FA04F642EB060171
:1006B0005EEA430E08BF20EAD37070BDC4F10C049B
:1006C000C4F1200500FA04F320FA05F001FA04F25F
:1006D00040EA020001F0004110EBD37041F100014B
:1006E0005EEA430E08BF20EAD37070BDC4F1200556
:1006F00000FA05F24EEA020E20FA04F301FA05F2BE
:1007000043EA020321FA04F001F0004121FA04F265
:1007100020EA020000EBD3705EEA430E08BF20EA35
:10072000D37070BD94F0000F0FD101F0004640006F
:1007300041EB010111F4801F08BF013CF7D041EAF1
:10074000060195F0000F18BF704703F000465200F5
:1007500043EB030313F4801F08BF013DF7D043EAC6
:100760000603704794EA0C0F0CEA135518BF95EA7C
:100770000C0F0CD050EA410618BF52EA4306D1D103
:1007800081EA030101F000414FF0000070BD50EA22
:10079000410606BF1046194652EA430619D094EAAC
:1007A0000C0F02D150EA013613D195EA0C0F05D196
:1007B00052EA03361CBF104619460AD181EA0301EA
:1007C00001F0004141F0FE4141F470014FF00000A2
:1007D00070BD41F0FE4141F4780170BD70B54FF03D
:1007E000FF0C4CF4E06C1CEA11541DBF1CEA1355BD
:1007F00094EA0C0F95EA0C0F00F0A7F8A4EB05049F
:1008000081EA030E52EA03354FEA013100F0888095
:100810004FEA03334FF0805545EA131343EA12635E
:100820004FEA022245EA111545EA10654FEA002613
:100830000EF000419D4208BF964244F1FD0404F5CC
:10084000407402D25B084FEA3202B61A65EB030528
:100850005B084FEA32024FF480104FF4002CB6EBE5
:10086000020E75EB030E22BFB61A754640EA0C0065
:100870005B084FEA3202B6EB020E75EB030E22BFA5
:10088000B61A754640EA5C005B084FEA3202B6EBE6
:10089000020E75EB030E22BFB61A754640EA9C00A5
:1008A0005B084FEA3202B6EB020E75EB030E22BF75
:1008B000B61A754640EADC0055EA060E18D04FEA33
:1008C000051545EA16754FEA06164FEAC30343EAD3
:1008D00052734FEAC2025FEA1C1CC0D111F4801FA0
:1008E0000BD141EA00014FF000004FF0004CB6E799
:1008F00011F4801F04BF01430020B4F1FD0C88BF38
:10090000BCF5E06F3FF6AFAEB5EB030C04BFB6EB42
:10091000020C5FEA500C50F1000041EB045170BD35
:100920000EF0004E4EEA113114EB5C04C2BFD4EB62
:100930000C0541EA045170BD41F480114FF0000EE6
:10094000013C90E645EA060E8DE60CEA135594EA62
:100950000C0F08BF95EA0C0F3FF43BAF94EA0C0F65
:100960000AD150EA01347FF434AF95EA0C0F7FF4DA
:1009700025AF104619462CE795EA0C0F06D152EA2E
:1009800003353FF4FDAE1046194622E750EA410612
:1009900018BF52EA43067FF4C5AE50EA41047FF423
:1009A0000DAF52EA43057FF4EBAE12E74FF0FF3C88
:1009B00006E000BF4FF0010C02E000BF4FF0010C59
:1009C0004DF804CD4FEA410C7FEA6C5C4FEA430CD2
:1009D00018BF7FEA6C5C1BD001B050EA410C0CBF21
:1009E00052EA430C91EA030F02BF90EA020F002083
:1009F000704710F1000F91EA030F58BF994208BFEA
:100A000090422CBFD8176FEAE37040F001007047A6
:100A10004FEA410C7FEA6C5C02D150EA013C07D1FD
:100A20004FEA430C7FEA6C5CD6D152EA033CD3D048
:100A30005DF8040B704700BF8446104662468C4642
:100A40001946634600E000BF01B5FFF7B7FF002875
:100A500048BF10F1000F01BD4DF808EDFFF7F4FF9E
:100A60000CBF012000205DF808FB00BF4DF808ED29
:100A7000FFF7EAFF34BF012000205DF808FB00BF4C
:100A80004DF808EDFFF7E0FF94BF012000205DF86E
:100A900008FB00BF4DF808EDFFF7CEFF94BF012023
:100AA00000205DF808FB00BF4DF808EDFFF7C4FF1C
:100AB00034BF012000205DF808FB00BF4FEA410C65
:100AC0007FEA6C5C02D150EA013C0AD14FEA430C48
:100AD0007FEA6C5C02D152EA033C02D14FF0000085
:100AE00070474FF0010070474FEA410212F50012C3
:100AF00015D211D56FF47873B3EB625212D94FEA65
:100B0000C12343F0004343EA505311F0004F23FA4E
:100B100002F018BF404270474FF00000704750EAA3
:100B2000013005D111F0004008BF6FF00040704760
:100B30004FF00000704700BF4FEA4102B2F1E043BE
:100B400024BFB3F5001CDCF1FE5C0DD901F0004CB4
:100B50004FEAC0024CEA5070B2F1004F40EB830004
:100B600008BF20F00100704711F0804F21D113F130
:100B70003872BCBF01F00040704741F480114FEA69
:100B80005252C2F11802C2F1200C10FA0CF320FAF2
:100B900002F018BF40F001004FEAC1234FEAD3230F
:100BA00003FA0CFC40EA0C0023FA02F34FEA430379
:100BB000CCE77FEA625307D150EA01331EBF4FF002
:100BC000FE4040F44000704701F0004040F0FE401D
:100BD00040F40000704700BF53B94AB9002908BF6C
:100BE00000281CBF4FF0FF314FF0FF3000F072B90A
:100BF000ADF1080C6DE904CE00F006F8DDF804E074
:100C0000DDE9022304B070472DE9F047089E044651
:100C10008846002B4BD18A42154667D9B2FA82F238
:100C20004AB1C2F1200701FA02F320FA07F7954012
:100C300047EA030894404FEA154E230CB8FBFEF731
:100C40001FFA85FC0EFB178843EA084307FB0CF1EB
:100C5000994209D9EB1807F1FF3080F01B819942C6
:100C600040F21881023F2B445B1AA4B2B3FBFEF0A2
:100C70000EFB103344EA034400FB0CFCA44509D9E5
:100C80002C1900F1FF3380F00781A44540F2048164
:100C900002382C4440EA0740A4EB0C0400271EB1A4
:100CA000D4400023C6E900433946BDE8F0878B42B3
:100CB00009D9002E00F0EB800027C6E90001384674
:100CC0003946BDE8F087B3FA83F7002F47D18B424E
:100CD00002D3824200F2FA80841A61EB03030120FE
:100CE0009846002EE0D0C6E90048DDE702B9FFDEF5
:100CF000B2FA82F2002A40F08F80491B4FEA154E6B
:100D00001FFA85F80127B1FBFEFC230C0EFB1C111A
:100D100043EA014308FB0CF1994207D9EB180CF1A7
:100D2000FF3002D2994200F2CD808446591AA3B214
:100D3000B1FBFEF00EFB101443EA044408FB00F87C
:100D4000A04507D92C1900F1FF3302D2A04500F2CB
:100D5000B6801846A4EB080440EA0C409FE7C7F1B0
:100D6000200CBB4022FA0CFE4EEA030E01FA07F4F7
:100D700020FA0CF521FA0CF34FEA1E482543B3FB89
:100D8000F8F92C0C08FB19331FFA8EFA44EA0343D6
:100D900009FB0AF49C4202FA07F200FA07F10BD9A8
:100DA0001EEB030309F1FF3080F087809C4240F284
:100DB0008480A9F1020973441B1BADB2B3FBF8F0A8
:100DC00008FB103345EA034400FB0AFAA24508D9A0
:100DD0001EEB040400F1FF336BD2A24569D902383F
:100DE000744440EA0940A0FB0289A4EB0A044C4584
:100DF000C2464B4654D351D0002E69D0B1EB0A0500
:100E000064EB030404FA0CFCFD40FC404CEA0505CD
:100E1000C6E90054002747E7C2F1200320FA03F790
:100E2000954001FA02F021FA03F34FEA154E3843D8
:100E3000010CB3FBFEF71FFA85F80EFB173341EAEE
:100E4000034107FB08F38B4204FA02F407D969183F
:100E500007F1FF3C2FD28B422DD9023F2944CB1AF8
:100E600081B2B3FBFEF00EFB103341EA034100FBFD
:100E700008F38B4207D9691800F1FF3C17D28B4267
:100E800015D902382944C91A40EA07473BE73746D3
:100E9000304609E70746E7E61846FBE64145ABD290
:100EA000B8EB020A69EB0E0201381346A4E760466C
:100EB000E9E7184695E76746D1E781467CE70238BF
:100EC0002C4447E7ACF1020C2B442FE7384608E7E7
:100ED0003746E9E6704700BF034613F8012B002AA6
:100EE000FBD1181A01387047000000000000000014
:100EF00001F0FF01102A2BDB10F0070F08D010F8CB
:100F0000013B013A8B422DD010F0070F42B3F6D1CE
:100F1000F0B441EA012141EA014122F007047FF0E7
:100F200000070023F0E80256083C85EA010586EA3E
:100F3000010685FA47F5A3FA87F586FA47F6A5FA7A
:100F400087F68EB9EED1F0BC01F0FF0102F0070286
:100F500032B110F8013B013A83EA010313B1F8D131
:100F60000020704701387047002D06BF3546033812
:100F7000073815F0010F07D1013015F4807F02BF4B
:100F8000013015F4C03F0130F0BC0138704700BF9C
:100F900038B504464A4DB5F90400FFF78BFA3EA375
:100FA000D3E90023FFF7F0FA0022464BFFF736F9AA
:100FB000C4E91201B5F90600FFF77CFA38A3D3E9BA
:100FC0000023FFF7E1FAC4E90001B5F90800FFF7D3
:100FD00071FA33A3D3E90023FFF7D6FAC4E902017B
:100FE000B5F90A00FFF766FA2DA3D3E90023FFF74E
:100FF000CBFAC4E90401B5F90C00FFF75BFA2AA3A8
:10100000D3E90023FFF7C0FAC4E90601B5F90E00E1
:10101000FFF750FA24A3D3E90023FFF7B5FAC4E998
:101020000801B5F91000FFF745FA1FA3D3E9002323
:10103000FFF7AAFAC4E90A01B5F91200FFF73AFA74
:101040001BA3D3E90023FFF79FFAC4E90C01B5F90C
:101050001400FFF72FFA16A3D3E90023FFF794FA41
:10106000C4E90E01B5F91600FFF724FA10A3D3E97D
:101070000023FFF789FAC4E91001B5F91800FFF75A
:1010800019FA0DA3D3E90023FFF77EFAC4E914018E
:1010900038BD00BFAFF300804DF38E537424773F0B
:1010A0007B14AE47E17A943F2D431CEBE2364A3F76
:1010B0002D431CEBE2361A3FF168E388B5F8043F94
:1010C000DC4400200000394070B582B002AC24F846
:1010D000020D0F4D00222021284600F079FC0D4E14
:1010E00040F6FF7301222146304601F0C8FF40F66A
:1010F000FF7301222146304602F0C6F90122202169
:10110000284600F065FCBDF8060002B070BD00BFC7
:10111000000802403855002030B583B001430C4B25
:101120000B4302AC24F8023D0A4D00222021284640
:1011300000F04EFC40F6FF7301222146064801F004
:101140009EFF01222021284600F042FC03B030BD62
:101150000080FFFF000802403855002070B584B0C1
:1011600000F580739BB243EA112343F40043ADF8CA
:101170000E30C9B20843114B034304AC24F80A3DB6
:101180000F4D00222021284600F022FC0D4E40F693
:10119000FF7301222146304601F071FF40F6FF73D4
:1011A00001220DF10E01304601F069FF01222021DC
:1011B000284600F00DFC04B070BD00BF0080FFFFAA
:1011C000000802403855002008B503210020FFF731
:1011D000A3FF80214FF40070FFF7C0FF782000F0DC
:1011E0007BF84FF400410020FFF796FF08BD08B5DB
:1011F000FFF7EAFF4FF4FC40FFF766FF44F2680395
:10120000984201D0002008BD03210020FFF784FF91
:1012100008214FF4C060FFF7A1FF18214FF4406090
:10122000FFF79CFF4FF400410020FFF775FF0120FE
:10123000E9E7000038B5174DE888FFF745FF164C81
:10124000A0802889FFF740FFE0806889FFF73CFF16
:101250002081A889FFF738FF6081E889FFF734FF14
:10126000A081288AFFF730FFE081688AFFF72CFF12
:101270002082A88AFFF728FF6082E88AFFF724FF10
:10128000A082288BFFF720FFE082688BFFF71CFF0E
:10129000208338BD00000020DC44002008B5032076
:1012A00000F02EF8002007F083FB06F0D9FF0020A5
:1012B00008BD0000034A1168034B1B780B44136000
:1012C000704700BF044500202C000020014B186827
:1012D000704700BF0445002038B50446FFF7F6FF0D
:1012E0000546B4F1FF3F02D0044B1B781C44FFF7C6
:1012F000EDFF401BA042FAD338BD00BF2C000020F8
:101300000649CB6823F4E0631B041B0C000200F4C5
:10131000E0600343024A1A43CA60704700ED00E0F0
:101320000000FA0530B4154BDB68C3F30223C3F1A8
:101330000704042C28BF04241D1D062D14D9033BCB
:101340004FF0FF3505FA04F421EA0401994005FA4B
:1013500003F322EA03031943002807DB0901C9B29A
:10136000074B195430BC70470023E9E700F00F0029
:101370000901C9B2034B1954F4E700BF00ED00E0C6
:1013800000E400E014ED00E000F01F02400901233A
:101390009340024A42F82030704700BF00E100E06D
:1013A00000F01F024009012393402030014A42F817
:1013B0002030704700E100E030B405682C6824F468
:1013C00080242C60046863608368402B05D0036828
:1013D00099600368DA6030BC704703689A600368FC
:1013E000D960F8E70268D3B2103B0949A1FB0313A7
:1013F0001B090849C95CC165032B04D8064B13407F
:101400008365806D7047044B134004338365F8E7B0
:10141000ABAAAAAA9809010800FCFFFF836A8269A7
:1014200092B9012B0AD01BB1022B01D000207047CA
:10143000C36A13F0807F2CD100207047C36AB3F1D8
:10144000C07F28D000207047B2F5005F05D0022B86
:1014500029D9032B15D000207047032B03D8DFE8D0
:1014600003F01C041C0A00207047C36A13F0807F3D
:1014700015D100207047C36AB3F1C07F11D000209E
:101480007047C36A13F0807F01D0012070470020AD
:1014900070470120704701207047012070470120EC
:1014A00070470120704701207047000070B5044666
:1014B000FFF70CFF002C5BD00546002384F8343086
:1014C000022384F835302268136823F00103136087
:1014D00023681A6812F0010F0AD0FFF7F7FE401BCD
:1014E0000528F5D920236365032084F8350070BDF5
:1014F0001A68204810406168A2680A43E1680A43FC
:1015000021690A4361690A43A1690A43E1690A43FF
:10151000216A0A430243616A04291ED01A602668C0
:10152000756925F00705636A1D43042B07D1A36A7B
:101530001D43E36A1BB12046FFF770FF90B9756148
:101540002046FFF74FFFE26D3F239340836000206A
:101550006065012384F83530C9E7E16A206B0143F7
:101560000A43DBE740236365012084F83500BEE7CA
:101570000120BCE73F8010F038B5856D90F834400D
:10158000012C31D0012480F8344090F83540E4B289
:10159000012C04D0002380F83430022038BD0446EA
:1015A000022084F83500002060652046FFF704FF24
:1015B000E26D3F239340AB602268136843F016034B
:1015C00013602268536943F080035361236C23B195
:1015D0002268136843F0080313602268136843F01D
:1015E000010313600020D9E70220D7E790F83530D7
:1015F000DBB2022B03D08023436501207047052313
:1016000080F835300268136823F00103136000206E
:1016100070470000F0B583B0044600230193724B7D
:101620001D68724BA3FB0535AD0A876D3E68C26D20
:1016300008239340334210D003681A6812F0040F55
:101640000BD01A6822F004021A60C26D082393407E
:10165000BB60436D43F001034365E26D012393409A
:10166000334209D02268526912F0800F04D0BB6067
:10167000636D43F002036365E26D042393403342DC
:1016800009D02268126812F0020F04D0BB60636DAB
:1016900043F004036365E26D10239340334224D08A
:1016A0002268126812F0080F1FD0BB6023681A6806
:1016B00012F4802F0DD01B6813F4002F04D1236C7B
:1016C0009BB12046984710E0A36C73B12046984721
:1016D0000BE01A6812F4807F03D11A6822F0080226
:1016E0001A60236C0BB120469847E26D202393408B
:1016F000334255D02268126812F0100F50D0BB60F0
:1017000094F83530DBB2052B0ED023681A6812F43A
:10171000802F33D01B6813F4002F2AD1636C002B69
:101720003ED0204698473BE02268136823F016031A
:1017300013602268536923F080035361236CA3B1C3
:101740002268136823F008031360E26D3F2393407F
:10175000BB60002384F83430012384F83530236DD6
:10176000002B3FD0204698473CE0A36C002BE7D1EC
:10177000EBE7E36BA3B12046984711E01A6812F437
:10178000807F09D11A6822F010021A60002384F8C1
:101790003430012384F83530E36B0BB12046984791
:1017A000636DFBB1636D13F0010F17D0052384F84F
:1017B00035302268136823F001031360019B013365
:1017C0000193AB4204D823681B6813F0010FF5D1D5
:1017D000002384F83430012384F83530E36C0BB1F6
:1017E0002046984703B0F0BD40020020B5814E1B53
:1017F00000230F2B00F2E280F0B482B039E009221E
:1018000000E00022B2403A4302346D4E46F82420F4
:101810006C4A1468EA4302EA04064F6817F4803FF2
:1018200001D045EA0406674C2660646802EA0406B3
:101830004F6817F4003F01D045EA0406614C66602A
:10184000A46802EA04064F6817F4801F01D045EA35
:1018500004065C4CA660E46822404E6816F4001F43
:1018600001D045EA0402574CE26001330F2B00F22D
:10187000A28001229A400C6804EA0205AA42F4D12F
:101880004C68122C18BF022C10D1DE08083650F814
:1018900026C003F00704A7000F24BC402CEA040C68
:1018A0000C69BC4044EA0C0440F8264004685F0020
:1018B0000326BE40F64306EA040C4C6804F0030419
:1018C000BC4044EA0C0404604C6804F1FF3C112C59
:1018D00018BFBCF1010F01D9122C11D1846806EA9E
:1018E000040CCC68BC4044EA0C048460446824EADC
:1018F000020C4C68C4F300129A4042EA0C024260A7
:10190000C26816408A68BA403243C2604A6812F020
:10191000805FAAD02C4A546C44F480445464526CC6
:1019200002F480420192019A9C08A61C244A52F8B3
:10193000267003F0030296000F22B24027EA020746
:10194000224A90423FF45DAF02F58062904222D07D
:1019500002F58062904220D002F5806290421ED053
:1019600002F5806290421CD002F5806290421AD04B
:1019700002F58062904218D002F58062904216D043
:1019800002F58062904214D002F5806290423FF4EA
:1019900036AF0A2236E7012234E7022232E7032279
:1019A00030E704222EE705222CE706222AE7072249
:1019B00028E7082226E702B0F0BC7047704700BF56
:1019C00000380140003C0140003802400000024065
:1019D00012B90904816170478161704708B5054BF0
:1019E0005B69034200D108BD024B586106F0EEFB73
:1019F000F9E700BF003C014003689A6912F0020F4A
:101A000001D000229A6203689A6912F0010F03D193
:101A10009A6942F001029A61704770B4039E0568AA
:101A20006868740D04F4806444F07F7444F458349E
:101A300044F47F7444F0030420EA0400C1F3090174
:101A400041EA0241194331430143696070BC704768
:101A500070B504460D46164603689B6913F0100FD7
:101A600017D023689A6912F0200F14D1B5F1FF3F07
:101A7000F7D025B1FFF72AFC801BA842F1D920231B
:101A800084F84130002384F8423084F84030032049
:101A90001EE000201CE01022DA6123682025DD61B1
:101AA0002046FFF7A9FF2268536823F0FF7323F451
:101AB0008B3323F4FF7323F0010353600423636427
:101AC00084F84150002384F8423084F840300120EB
:101AD00070BD70B504460D46164623689B6913F029
:101AE000020F1CD1324629462046FFF7B1FFC0B98C
:101AF000B5F1FF3FF1D025B1FFF7E8FB801BA8420D
:101B0000EBD9636C43F020036364202384F84130F5
:101B1000002384F8423084F84030032000E00020A5
:101B200070BD0120FCE7F8B505460F4616461C4679
:101B30002B689B6937EA03030CBF01230023B342E0
:101B400013D1B4F1FF3FF3D02CB1FFF7BFFB069BDD
:101B5000C01AA042ECD9202385F84130002385F833
:101B6000423085F84030032000E00020F8BD70B519
:101B700005460C4616462B689B6913F0200F19D1B9
:101B8000324621462846FFF763FFA8B924B1FFF784
:101B90009DFB801BA042EED96B6C43F020036B646D
:101BA000202385F84130002385F8423085F8403005
:101BB000032070BD0020FCE70120FAE770B5044661
:101BC0000D46164623689B6913F0040F3DD132463B
:101BD00029462046FFF73CFF0146002837D12368FD
:101BE0009A6912F0200F12D125B1FFF76FFB801B0D
:101BF000A842E7D9636C43F020036364202384F890
:101C00004130002384F840300321084670BD9A69B2
:101C100012F0040F02D0228D002AF6D12022DA61C0
:101C200021684B6823F0FF7323F48B3323F4FF7395
:101C300023F001034B600023636484F8412084F89F
:101C4000423084F840300121DFE70021DDE7012147
:101C5000DBE70000002857D010B5044690F841306B
:101C6000002B41D0242384F841302268136823F0EC
:101C7000010313606368226823F0706313612268B4
:101C8000936823F400439360E368012B31D0A36889
:101C9000226843F404439360E368022B2FD0226848
:101CA00051681A4B0B4353602268D36823F40043F6
:101CB000D360236962691343A169226843EA01235F
:101CC000D360E369216A22680B43136022681368BA
:101CD00043F00103136000206064202384F8413046
:101CE000206384F8420010BD80F8403006F0D8FA36
:101CF000B8E7A368226843F400439360CCE7236805
:101D00004FF400625A60CAE7012070470080000269
:101D10002DE9F04383B090F84150EDB2202D40F012
:101D2000AD8090F84040012C00F0AD8098461746F9
:101D30000E4604464FF0010980F84090FFF7C6FABE
:101D40000546009019234A464FF400412046FFF70C
:101D5000EAFE002840F09980212384F841301023C6
:101D600084F84230002363646762A4F82A806363C6
:101D7000638D9BB2FF2B0AD9FF222285474B00932C
:101D80004FF0807331462046FFF747FE1DE0628D1D
:101D900092B22285414B00934FF00073D2B231468C
:101DA0002046FFF73AFE10E0636C042B6FD101234D
:101DB00065E0628D92B22285002300934FF000739C
:101DC000D2B231462046FFF728FE638D9BB2002B2E
:101DD00032D02A460A992046FFF77BFE0028E3D13D
:101DE000636A5A1C626222681B789362638D013BAE
:101DF0009BB26385238D013B9BB22385002BE4D1ED
:101E0000638D9BB2002BE0D000950A9B00228021BD
:101E10002046FFF788FE00283BD1638D9BB2FF2B45
:101E2000C7D9FF222285002300934FF080733146EB
:101E30002046FFF7F2FDC8E72A460A992046FFF739
:101E400096FE034620B1636C042B24D1012316E0D7
:101E500022682021D1612068426822F0FF7222F4BA
:101E60008B3222F4FF7222F00102426084F84110AA
:101E7000002284F8422084F8402000E00223184623
:101E800003B0BDE8F0830223F9E70323F7E7032358
:101E9000F5E70323F3E70323F1E700BF0020008009
:101EA0002DE9F04383B090F84150EDB2202D40F081
:101EB000AD8090F84040012C00F0AD809846174668
:101EC0000E4604464FF0010980F84090FFF7FEF9F6
:101ED0000546009019234A464FF400412046FFF77B
:101EE00022FE002840F09980222384F841301023FC
:101EF00084F84230002363646762A4F82A80636335
:101F0000638D9BB2FF2B0AD9FF222285474B00939A
:101F10004FF0807331462046FFF77FFD1DE0628D54
:101F200092B22285414B00934FF00073D2B23146FA
:101F30002046FFF772FD10E0636C042B6FD1012384
:101F400065E0628D92B22285002300934FF000730A
:101F5000D2B231462046FFF760FD638D9BB2002B65
:101F600032D02A460A992046FFF728FE0028E3D1FE
:101F700023685A6A636A591C61621A70238D013B97
:101F80009BB22385628D013A92B26285002BE4D127
:101F9000638D9BB2002BE0D000950A9B002280212C
:101FA0002046FFF7C0FD00283BD1638D9BB2FF2B7D
:101FB000C7D9FF222285002300934FF0807331465A
:101FC0002046FFF72AFDC8E72A460A992046FFF770
:101FD000CEFD034620B1636C042B24D1012316E00F
:101FE00022682021D1612068426822F0FF7222F429
:101FF0008B3222F4FF7222F00102426084F8411019
:10200000002284F8422084F8402000E00223184691
:1020100003B0BDE8F0830223F9E70323F7E70323C6
:10202000F5E70323F3E70323F1E700BF0024008073
:1020300090F84130DBB2202B24D190F84030012BB6
:1020400022D0012380F84030242380F841300268F8
:10205000136823F0010313600268136823F48053AC
:10206000136002681368194311600268136843F033
:1020700001031360202380F84130002380F84030B2
:1020800018467047022070470220704790F8413090
:10209000DBB2202B22D190F84030012B20D001233D
:1020A00080F84030242380F841300268136823F020
:1020B000010313600268136823F4706343EA01218B
:1020C00011600268136843F001031360202380F855
:1020D0004130002380F84030184670470220704796
:1020E0000220704710B582B01B4B1A6C42F0805230
:1020F0001A641B6C03F080530193019B174A136809
:1021000043F480331360FFF7E1F80446134B5B6838
:1021100013F4803F08D1FFF7D9F8001BB0F57A7FA0
:10212000F4D9032002B010BD0C4A136843F4003305
:102130001360FFF7CBF80446084B5B6813F4003FCD
:1021400007D1FFF7C3F8001BB0F57A7FF4D903205D
:10215000E8E70020E6E700BF0038024000700040DA
:10216000002800F0DB8170B582B00446036813F0EC
:10217000010F29D0A24B9B6803F00C03042B1AD04B
:102180009F4B9B6803F00C03082B0FD06368B3F5DB
:10219000803F40D0002B54D1994B1A6822F48032F2
:1021A0001A601A6822F480221A6039E0944B5B6846
:1021B00013F4800FEAD0924B1B6813F4003F03D056
:1021C0006368002B00F0AC81236813F0020F75D018
:1021D0008B4B9B6813F00C0F5ED0894B9B6803F010
:1021E0000C03082B53D0E368002B00F08A80844A4C
:1021F000136843F001031360FFF768F80546804B4E
:102200001B6813F0020F73D1FFF760F8401B022820
:10221000F5D9032087E17A4A136843F480331360C9
:1022200063682BB3FFF752F80546754B1B6813F430
:10223000003FC9D1FFF74AF8401B6428F5D90320B5
:1022400071E1B3F5A02F09D06D4B1A6822F48032EA
:102250001A601A6822F480221A60E1E7684B1A6853
:1022600042F480221A601A6842F480321A60D7E77A
:10227000FFF72CF80546624B1B6813F4003FA3D010
:10228000FFF724F8401B6428F5D903204BE15C4B91
:102290005B6813F4800FA6D1594B1B6813F0020F33
:1022A00004D0E368012B01D001203CE1544A1368BB
:1022B00023F0F803216943EAC1031360236813F094
:1022C000080F46D0636983B34D4A536F43F001034F
:1022D0005367FEF7FBFF0546494B5B6F13F0020F98
:1022E00037D1FEF7F3FF401B0228F5D903201AE18E
:1022F000434A136823F0F803216943EAC1031360DA
:10230000DCE73F4A136823F001031360FEF7DEFFAA
:1023100005463B4B1B6813F0020FCFD0FEF7D6FFEC
:10232000401B0228F5D90320FDE0354A536F23F006
:1023300001035367FEF7CAFF0546314B5B6F13F08D
:10234000020F06D0FEF7C2FF401B0228F5D903207A
:10235000E9E0236813F0040F7ED0294B1B6C13F0C7
:10236000805F1ED1264B1A6C42F080521A641B6C9F
:1023700003F080530193019B0125224B1B6813F44A
:10238000807F10D0A368012B21D0002B3CD11C4BA7
:102390001A6F22F001021A671A6F22F004021A67FC
:1023A0001AE00025E9E7174A136843F480731360C5
:1023B000FEF78CFF0646134B1B6813F4807FE1D1B8
:1023C000FEF784FF801B6428F5D90320ABE00C4A9C
:1023D000136F43F001031367A3685BB3FEF776FF47
:1023E0000646074B1B6F13F0020F34D1FEF76EFF4A
:1023F000801B41F288339842F3D9032093E000BF59
:102400000038024000700040052B09D0484B1A6F7D
:1024100022F001021A671A6F22F004021A67DBE742
:10242000434B1A6F42F004021A671A6F42F001021E
:102430001A67D1E7FEF74AFF06463D4B1B6F13F0C4
:10244000020F08D0FEF742FF801B41F2883398420A
:10245000F3D9032067E0F5B9A369002B62D0344AB1
:10246000926802F00C02082A5FD0022B19D0304A81
:10247000136823F080731360FEF728FF04462C4B8B
:102480001B6813F0007F47D0FEF720FF001B0228D7
:10249000F5D9032047E0264A136C23F080531364D8
:1024A000DAE7234A136823F080731360FEF70EFF08
:1024B00005461F4B1B6813F0007F06D0FEF706FF92
:1024C000401B0228F5D903202DE0E369226A13435B
:1024D000626A43EA8213A26A5208013A43EA02435B
:1024E000E26A43EA026343F00053114A53601368FF
:1024F00043F080731360FEF7E9FE04460C4B1B6843
:1025000013F0007F06D1FEF7E1FE001B0228F5D98B
:10251000032008E0002006E0002004E001207047CE
:10252000012000E0002002B070BD0120FBE700BFE9
:1025300000380240324B9B6803F00C03042B5CD044
:10254000082B01D02F4870472DE9F04B2C4B5A68CF
:1025500002F03F025B6813F4800F2BD0284B5B68BE
:10256000C3F388131E4600275C010025E41A65EBBF
:102570000705A90141EA9461A001001B61EB050177
:10258000CB0043EA5073C400A01943EB07014B0290
:1025900043EAD0534402204619460023FEF71CFBB1
:1025A000174B5B68C3F3014301335B00B0FBF3F0EF
:1025B000BDE8F08B124B5B68C3F388131E460027FF
:1025C0005C010025E41A65EB0705A90141EA946165
:1025D000A001001B61EB0501CB0043EA5073C4006E
:1025E000A01943EB07018B0243EA90538402204673
:1025F00019460023FEF7F0FAD2E70348704700BF00
:10260000003802400024F40000127A00002800F094
:10261000A28070B50446524B1B6803F00F038B4237
:102620000CD24F4A136823F00F030B431360136857
:1026300003F00F038B4201D0012070BD236813F01B
:10264000020F17D013F0040F04D0464A936843F4E6
:10265000E0539360236813F0080F04D0414A936855
:1026600043F4604393603F4A936823F0F003A0680B
:10267000034393600D46236813F0010F31D0636864
:10268000012B20D0022B25D0364A126812F0020FFF
:1026900063D034498A6822F0030213438B60FEF74B
:1026A00015FE06462F4B9B6803F00C036268B3EBE4
:1026B000820F16D0FEF70AFE801B41F28833984243
:1026C000F0D90320B9E7274A126812F4003FE0D19D
:1026D0000120B2E7234A126812F0007FD9D101200D
:1026E000ABE71F4B1B6803F00F03AB420CD91C4A2E
:1026F000136823F00F032B431360136803F00F03D9
:10270000AB4201D0012098E7236813F0040F06D0F4
:10271000144A936823F4E053E1680B439360236801
:1027200013F0080F07D00F4A936823F46043216920
:1027300043EAC1039360FFF7FDFE0A4B9B68C3F3B6
:102740000313094AD35CD840084B1860002006F0F8
:102750002FF9002071E70120704701206DE700BFCD
:10276000003C0240003802402C0A010840020020D0
:10277000014B1868704700BF4002002008B5FFF702
:10278000F7FF044B9B68C3F38223034AD35CD84012
:1027900008BD00BF003802403C0A010808B5FFF739
:1027A000E7FF044B9B68C3F34233034AD35CD84032
:1027B00008BD00BF003802403C0A01080F23036037
:1027C0000B4B9A6802F0030242609A6802F0F00232
:1027D00082609A6802F4E052C2609B68DB0803F4EE
:1027E000E0530361034B1B6803F00F030B6070475A
:1027F00000380240003C0240F0B583B00446036854
:1028000013F0010F0CD0AF4B9A6822F400029A60CB
:102810009A68416B0A439A60436BC3B1002600E09B
:102820000026236813F4002F15D0A64AD2F88C3066
:1028300023F44013E16B0B43C2F88C30E36BB3F528
:10284000801F06D0002B00F01B81002504E001262C
:10285000E7E70126F6E70025236813F4801F0FD071
:10286000984AD2F88C3023F44003216C0B43C2F811
:102870008C30236CB3F5800F00F0048103B901257F
:10288000236813F0807F00D0012613F0200F40F062
:10289000FB80236813F0100F0CD08A4BD3F88C20E8
:1028A00022F08072C3F88C20D3F88C20A16B0A43ED
:1028B000C3F88C20236813F4804F08D0814AD2F8E3
:1028C000903023F44033616E0B43C2F8903023689C
:1028D00013F4004F08D07B4AD2F8903023F4402301
:1028E000A16E0B43C2F89030236813F4803F08D0E8
:1028F000744AD2F8903023F44013E16E0B43C2F8CF
:102900009030236813F4003F08D06E4AD2F890301C
:1029100023F44003216F0B43C2F89030236813F077
:10292000400F08D0674AD2F8903023F00303616C5F
:102930000B43C2F89030236813F0800F08D0614A2F
:10294000D2F8903023F00C03A16C0B43C2F8903006
:10295000236813F4807F08D05A4AD2F8903023F0CD
:102960003003E16C0B43C2F89030236813F4007F0E
:1029700008D0544AD2F8903023F0C003216D0B43A5
:10298000C2F89030236813F4806F08D04D4AD2F813
:10299000903023F44073616D0B43C2F8903023688C
:1029A00013F4006F08D0474AD2F8903023F4406304
:1029B000A16D0B43C2F89030236813F4805F08D0F8
:1029C000404AD2F8903023F44053E16D0B43C2F8F3
:1029D0009030236813F4005F08D03A4AD2F8903060
:1029E00023F44043216E0B43C2F89030236813F464
:1029F000800F08D0334AD2F8903023F08063A16F63
:102A00000B43C2F89030236813F4001F0DD02D4AF9
:102A1000D2F8903023F00063E16F0B43C2F890309E
:102A2000E36FB3F1006F00F09980236813F0080F93
:102A300000D0012513F4802F08D0224AD2F890301C
:102A400023F04073616F0B43C2F89030236813F496
:102A5000000F09D01B4AD2F8903023F08053D4F8ED
:102A600080100B43C2F89030002E79D12368B3F167
:102A7000007F75D0002D40F00681002003B0F0BD2E
:102A80000125E9E60126F9E60E4B1A6C42F0805268
:102A90001A641B6C03F080530193019B0A4A13686C
:102AA00043F480731360FEF711FC0746064B1B6866
:102AB00013F4807F0AD1FEF709FCC01B6428F5D906
:102AC0000320DBE70038024000700040B34B1B6F6F
:102AD00013F4407315D0226B02F440729A4210D066
:102AE000AE4B1A6F22F44072196F41F480311967AE
:102AF000196F21F4803119671A671B6F13F0010FEA
:102B000012D1236B03F44072B2F5407F1DD0A34A6B
:102B1000936823F4F8139360A0490B6F226BC2F300
:102B20000B0213430B67B4E6FEF7D0FB07469B4B43
:102B30001B6F13F0020FE4D1FEF7C8FBC01B41F27C
:102B400088339842F3D9032098E79448826822F4A6
:102B5000F812934919400A438260DDE7012564E7D2
:102B60008E4A136823F080631360FEF7AFFB0646BE
:102B70008A4B1B6813F0006F06D0FEF7A7FB801B83
:102B80006428F5D9032079E7236813F0010F13D0E7
:102B9000636B8BB9814AD2F88430D2F884106068B4
:102BA00003F4403343EA801301F070610B43A168E2
:102BB00043EA0173C2F88430236813F4002F03D072
:102BC000E26BB2F5801F06D013F4801F1ED0236C79
:102BD000B3F5800F1AD1714AD2F88430D2F884103C
:102BE000606803F4403343EA8013E06843EA00631B
:102BF00001F0E0410B43C2F88430D2F88C3023F06E
:102C00001F03616A01390B43C2F88C30236813F04B
:102C1000807F11D0614AD2F88400D2F884106668AF
:102C200023691B0443EA861300F07060034301F03C
:102C3000E0410B43C2F88430236813F0007F0DD0CD
:102C4000626823691B0443EA8213E26843EA026371
:102C5000A26843EA0273514AC2F884304F4A1368AB
:102C600043F080631360FEF731FB06464B4B1B6855
:102C700013F0006F7FF4FEAEFEF728FB801B642884
:102C8000F4D90320FAE6454A136823F08053136011
:102C9000FEF71CFB0546414B1B6813F0005F06D096
:102CA000FEF714FB401B6428F5D90320E6E62368F1
:102CB00013F4002F01D0E26B22B113F4801F1DD05A
:102CC000236CDBB9354AD2F88830D2F888106069B5
:102CD00003F4403343EA8013A06943EA006301F040
:102CE000E0410B43C2F88830D2F88C3023F4F8531B
:102CF000A16A013943EA0123C2F88C30236813F436
:102D0000001F03D0E36FB3F1006F31D0236813F0DD
:102D1000080F19D0214AD2F88810D2F8883060699B
:102D200003F4403343EA801301F070610B43E1691F
:102D300043EA0173C2F88830D2F88C3023F4403370
:102D4000E16A0B43C2F88C30144A136843F0805395
:102D50001360FEF7BBFA0446104B1B6813F0005FCC
:102D600019D1FEF7B3FA001B6428F5D9032085E6D4
:102D70000A4AD2F88800D2F888106569236A1B04D1
:102D800043EA851300F07060034301F0E0410B4318
:102D9000C2F88830BAE7002070E600BF0038024071
:102DA000FFFCFF0FF8B505460F4616461C462B687C
:102DB0009B683B40B34238D0B4F1FF3FF7D02CB111
:102DC000FEF784FA069BC01AA042F0D32A68536823
:102DD00023F0E00353606B68B3F5827F0BD0AB6ADE
:102DE000B3F5005F14D0012385F85D30002385F82A
:102DF0005C3003201AE0AB68B3F5806F18BFB3F501
:102E0000004FECD12A68136823F040031360E6E713
:102E10002A68136823F400531B041B0C13602A68F0
:102E2000136843F400531360DDE70020F8BDF0B5EC
:102E300083B007460D4614461E4602E0B6F1FF3F3A
:102E400010D13A6893682B40A34241D0B5F5C06FCA
:102E500008BF002CF2D1137BDBB28DF807309DF850
:102E60000730EBE72EB1FEF731FA089BC01AB042EB
:102E7000E7D33A68536823F0E00353607B68B3F507
:102E8000827F0BD0BB6AB3F5005F14D0012387F8B3
:102E90005D30002387F85C3003201AE0BB68B3F58F
:102EA000806F18BFB3F5004FECD13A68136823F078
:102EB00040031360E6E73A68136823F400531B04E9
:102EC0001B0C13603A68136843F400531360DDE78A
:102ED000002003B0F0BD70B582B004460D46164622
:102EE00000920B4600224FF4C051FFF7A0FFB8B983
:102EF00000962B46002280212046FFF753FFB8B9E9
:102F000000962B4600224FF4C0612046FFF78FFF4A
:102F1000034650B1236E43F020032366032304E0ED
:102F2000236E43F0200323660323184602B070BDCE
:102F3000236E43F0200323660323F6E770B582B0C7
:102F400004460D4616464368B3F5827F0FD00096BF
:102F50002B46002280212046FFF724FF034698B924
:102F60006268B2F5827F15D0184602B070BD8368E2
:102F7000B3F5806F18BFB3F5004FE8D1026813684E
:102F800023F040031360E2E7236E43F0200323663F
:102F90000323E9E7A268B2F5806F18BFB2F5004FCE
:102FA000E2D100962B4600224FF4C0612046FFF785
:102FB0003EFF03460028D7D0236E43F0200323664C
:102FC0000323D1E7002858D010B5044600238362BC
:102FD00090F85D30002B45D0022384F85D302268E4
:102FE000136823F040031360E368B3F5E06F3ED944
:102FF0000022B3F5706F18BFB3F5E06F01D0002168
:10300000A162216B21B9B3F5E06F33D902232363A9
:103010006368A1680B4321690B4361690B43A16994
:1030200001F400710B43E1690B43216A0B43A06A71
:10303000216803430B60638B03F00403616A0B4355
:10304000616B0B43E1680B43216813434B602268BB
:10305000D36923F40063D36100202066012384F840
:103060005D3010BD80F85C3005F052F9B4E74FF4E4
:103070008052BEE701232363CAE7012070472DE990
:10308000F04182B01E4690F85C30012B00F0AC801D
:1030900004460D469046012380F85C30FEF716F991
:1030A000074694F85D30DBB2012B09D002200123E2
:1030B00084F85D30002384F85C3002B0BDE8F08114
:1030C000B8FA88F35B09002D08BF0123002B40F0FC
:1030D0008380032384F85D3000232366A563A4F86E
:1030E0003C80A4F83E802364A4F84430A4F8463021
:1030F0002365E364A368B3F5004F0DD023681A6815
:1031000012F0400F03D11A6842F040021A60E368DF
:10311000B3F5E06F0BD82FE02268136843F48043C7
:103120001360EBE7002E59D0B6F1FF3F10D1E38FCB
:103130009BB2002B3BD023689A6812F0020FF1D0AB
:1031400035F8022BDA60E38F013B9BB2E387EEE7B1
:10315000FEF7BCF8C01BB042E9D30320A7E72A78EA
:103160001A73E38F013B9BB2E387013504E0002E25
:1031700036D0B6F1FF3F13D1E38F9BB2BBB12368CA
:103180009A6812F0020FF2D0E28F92B2012AE6D9C9
:1031900035F8022BDA60E38F023B9BB2E387EBE763
:1031A000FEF794F8C01BB042E6D303207FE73A460F
:1031B00031462046FFF78FFE08B120232366A3681F
:1031C00033B901932368DA6801929B680193019BEC
:1031D000236E3BB900206AE7012068E7032066E719
:1031E000032064E7012062E7022066E72DE9F84347
:1031F0009846089D90F85C30012B00F0438104460E
:103200000F461646012380F85C30FEF75FF88146D2
:1032100094F85D30DBB26268012B13D0B2F5827F87
:1032200008D00220012384F85D30002384F85C304C
:10323000BDE8F883A268002A40F01C81042B01D06D
:103240000220EFE7B6FA86F35B09002F08BF0123DF
:10325000002B40F01181B8F1000F00F00F8194F8BD
:103260005D30DBB2042B02D0052384F85D300023EF
:1032700023662664A4F84680A4F84480A763A4F8D3
:103280003E80A4F83C80E3642365E368B3F5E06F17
:1032900004D8B4F846309BB2012B22D92268536877
:1032A00023F48053536023681A6812F0400F03D14F
:1032B0001A6842F040021A60E368B3F5E06F54D92F
:1032C00063681BB1E38F9BB2012B07D1236837F8EA
:1032D000022BDA60E38F013B9BB2E3874FF00108DA
:1032E0001CE02268536843F480535360DBE7B4F872
:1032F00046309BB27BB123689A6812F0010F0AD066
:10330000DB6826F8023BB4F84630013B9BB2A4F8D8
:1033100046304FF00108B5F1FF3F1ED1E38F9BB25D
:103320002BB9B4F846309BB2002B00F09780B8F16F
:10333000000FDCD0E38F9BB2002BD8D023689A68B3
:1033400012F0020FD3D037F8022BDA60E38F013B83
:103350009BB2E3874FF00008C9E7FDF7B7FFA0EB8A
:103360000900A842DAD303205CE763681BB1E38F4E
:103370009BB2012B07D1236817F8012B1A73E38F37
:10338000013B9BB2E3874FF0010829E03A781A73BA
:10339000E38F013B9BB2E38701374FF00008B4F89D
:1033A00046309BB2CBB123689A6812F0010F14D05B
:1033B000B4F8462092B2012A3CD9DB6826F8023BD9
:1033C000B4F84630023B9BB2A4F84630B4F846301D
:1033D0009BB2012B26D94FF00108B5F1FF3F35D143
:1033E000E38F9BB223B9B4F846309BB2002B35D0A3
:1033F000B8F1000FD3D0E38F9BB2002BCFD023685E
:103400009A6812F0020FCAD0E28F92B2012ABDD997
:1034100037F8022BDA60E38F023B9BB2E3874FF071
:103420000008BCE72268536843F4805353604FF0B0
:103430000108D2E71B7B3370B4F84630013B9BB2E6
:10344000A4F8463001364FF00108C6E7FDF73EFF0D
:10345000A0EB0900A842C3D30320E3E64A4629466D
:103460002046FFF738FD08B120232366236E3BB9C1
:103470000020D7E60220D5E60120D3E60120D1E6E0
:103480000120CFE60220D3E62DE9F04182B00446C8
:103490000D4690461E464368B3F5827F19D094F8D6
:1034A0005C30012B00F0B080012384F85C30FDF724
:1034B0000DFF074694F85D30DBB2012B15D00220DA
:1034C000012384F85D30002384F85C3002B0BDE84D
:1034D000F0818368002BE2D1042380F85D300096F0
:1034E00013460A46FFF782FEF0E7B8FA88F35B0955
:1034F000002D08BF0123002B7ED1042384F85D300A
:10350000002323662564A4F84480A4F84680A363BE
:10351000A387E387E3642365E368B3F5E06F16D917
:103520002268536823F480535360A368B3F5004FB7
:1035300013D023681A6812F0400F03D11A6842F0C2
:1035400040021A60E368B3F5E06F11D92EE02268FB
:10355000536843F480535360E7E72268136823F409
:1035600080431360E5E7002E48D0B6F1FF3F12D14B
:10357000B4F846309BB29BB323689A6812F0010FEF
:10358000F1D01B7B05F8013BB4F84630013B9BB200
:10359000A4F84630ECE7FDF799FEC01BB042E7D334
:1035A00003208DE766B3B6F1FF3F12D1B4F8463081
:1035B0009BB2ABB123689A6812F0010FF2D0DB68BE
:1035C00025F8023BB4F84630013B9BB2A4F84630E4
:1035D000ECE7FDF77BFEC01BB042E7D303206FE7AB
:1035E0003A4631462046FFF7A9FC08B1202323665E
:1035F000236E3BB9002063E7012061E703205FE70A
:1036000003205DE701205BE702205FE710B4036A57
:10361000046A24F001040462846924F0F00444EA9A
:10362000021223F00A030B43826103625DF8044B2C
:10363000704730B4046A24F0100404628469056A97
:1036400024F4407444EA022222F470421B039BB229
:103650001A4325F0A005090101F0A0012943826168
:10366000016230BC704710B4036A23F01003036298
:103670008469036A24F4704444EA023223F0A0030C
:1036800043EA0113826103625DF8044B704730B472
:10369000046A24F480740462C469056A24F0030493
:1036A000224322F0F0021B01DBB21A4325F420650D
:1036B000090201F420612943C261016230BC7047F4
:1036C00030B4046A24F480540462C469056A24F4A2
:1036D000407444EA022222F470421B039BB21A4354
:1036E00025F42045090301F420412943C261016208
:1036F00030BC7047836823F0700341F00701194321
:1037000081607047022380F83D300268136843F0FF
:1037100001031360012380F83D30002070470268E8
:10372000D36843F00103D3600268136843F00103D8
:103730001360002070477047034690F83C20012A30
:103740001ED0012280F83C200C2917D8DFE801F0B8
:10375000071616160D161616101616161300026802
:10376000506B002283F83C2070470268906BF8E7AA
:103770000268D06BF5E70268106CF2E70020F0E712
:103780000220704770477047704710B504460368C1
:103790001A6912F0020F11D0DA6812F0020F0DD080
:1037A0006FF002021A610123037703689B6913F02B
:1037B000030F79D004F092FB0023237723681A6962
:1037C00012F0040F12D0DA6812F0040F0ED06FF06E
:1037D00004021A610223237723689B6913F4407F54
:1037E00068D0204604F07AFB0023237723681A6907
:1037F00012F0080F12D0DA6812F0080F0ED06FF036
:1038000008021A61042323772368DB6913F0030F8E
:1038100057D0204604F062FB0023237723681A69FF
:1038200012F0100F12D0DA6812F0100F0ED06FF0F5
:1038300010021A61082323772368DB6913F4407FA1
:1038400046D0204604F04AFB0023237723681A69F8
:1038500012F0010F03D0DA6812F0010F3FD1236894
:103860001A6912F0800F03D0DA6812F0800F3DD190
:1038700023681A6912F4807F03D0DA6812F0800F8F
:103880003BD123681A6912F0400F03D0DA6812F0B6
:10389000400F39D123681A6912F0200F03D0DA687B
:1038A00012F0200F37D110BDFFF76CFF2046FFF755
:1038B0006AFF81E72046FFF765FF2046FFF763FFB9
:1038C00092E72046FFF75EFF2046FFF75CFFA3E785
:1038D0002046FFF757FF2046FFF755FFB4E76FF08C
:1038E00001021A61204604F0ADFCB8E76FF08002D7
:1038F0001A61204600F015FCBAE76FF080021A61E9
:10390000204600F00EFCBCE76FF040021A61204632
:10391000FFF73AFFBEE76FF020021A61204600F081
:10392000FFFBC0E770B403683A4CA04214BF002408
:103930000124B0F1804F14BF224644F00102AAB91D
:10394000354DA84214BF00250125344EB0420DD09C
:1039500065B905F1804505F58235A84214BF0025FB
:10396000012506F50066B04200D01DB123F07003BA
:103970004D682B43002A33D1274A904214BF0022BE
:103980000122264DA8422BD052BB02F1804202F503
:103990008232904214BF0022012205F50065A84240
:1039A0001ED0EAB91E4A904214BF0022012205F53A
:1039B0009A35A84214D09AB91A4A904214BF0022EC
:1039C000012205F50065A8420AD04AB9164A90427C
:1039D00014BF00220122A5F59635A84200D01AB1E5
:1039E00023F44073CA68134323F080034A691343E6
:1039F00003608A68C2620A6882620C4B984214BFF4
:103A0000234644F001030BB10B69036301234361B7
:103A100070BC7047000001400008004000040040F6
:103A20000044014000180040002000400004014014
:103A3000A8B110B5044690F83D305BB1022384F87C
:103A40003D30211D2068FFF76DFF012384F83D30D4
:103A5000002010BD80F83C3004F0CCFCEEE70120E3
:103A60007047A8B110B5044690F83D305BB1022311
:103A700084F83D30211D2068FFF754FF012384F8AE
:103A80003D30002010BD80F83C30FFF754FEEEE7DB
:103A900001207047A8B110B5044690F83D305BB1E5
:103AA000022384F83D30211D2068FFF73BFF0123EE
:103AB00084F83D30002010BD80F83C3004F0D8FD83
:103AC000EEE701207047000070B4036A23F00103A1
:103AD0000362036A42688569104C2C400D682C43D0
:103AE00023F002058B682B430D4E0E4DA84218BFE4
:103AF000B0420BD123F00803CD682B4323F004031D
:103B000022F440724D6915438A692A4342608461F8
:103B10004A684263036270BC704700BF8CFFFEFFBF
:103B2000000001400004014070B4036A23F0100358
:103B30000362036A44688569124A2A400D6842EAB2
:103B4000052223F020038D6843EA05130E4E0F4D26
:103B5000A84218BFB0420ED123F08003CD6843EADB
:103B6000051323F0400324F440644D6944EA8504BE
:103B70008D6944EA8504446082614A688263036215
:103B800070BC7047FF8CFFFE000001400004014044
:103B900070B4036A23F480730362036A4268C569E0
:103BA000124C2C400D682C4323F400738D6843EABB
:103BB00005230F4E0F4DA84218BFB0420ED123F47B
:103BC0000063CD6843EA052323F4806322F4405266
:103BD0004D6942EA05128D6942EA05124260C461EC
:103BE0004A68C263036270BC704700BF8CFFFEFF6F
:103BF000000001400004014070B4036A23F48053C4
:103C00000362036A4468C5690D4A2A400D6842EAA6
:103C1000052223F400538D6843EA0533094E0A4D0B
:103C2000A84218BFB04204D124F480444D6944EA4C
:103C300085144460C2614A680264036270BC7047C4
:103C4000FF8CFFFE0000014000040140F0B4046A54
:103C500024F0010404628469056A1D4EB0F1804FAE
:103C600018BFB04223D0A6F57846B04214BF002654
:103C70000126184FB8421AD0CEB906F1804606F593
:103C80008236B04214BF0026012607F50067B8420D
:103C90000DD066B9104EB04214BF0026012607F5BC
:103CA0009A37B84203D016B944F0010202E024F07A
:103CB0000304224322F0F0021B01DBB2134325F080
:103CC0000A0201F00A01114383610162F0BC7047EE
:103CD00000000140000400400018004038B590F892
:103CE0003C30012B58D00D460446012380F83C306F
:103CF000022380F83D30DAB1042A2AD0082A3AD0CB
:103D0000CB684A6809680068FFF7DAFC2268D36963
:103D100023F44063D3612268D369A96843EA01238D
:103D2000D361012384F83D30002084F83C0038BD85
:103D3000CB684A6809680068FFF788FF22689369C2
:103D400023F00C03936122689369A9680B43936184
:103D5000E7E7CB684A6809680068FFF76AFC2268F1
:103D6000936923F44063936122689369A96843EAE5
:103D700001239361D5E7CB684A6809680068FFF7BB
:103D800086FC2268D36923F00C03D3612268D369CF
:103D9000A9680B43D361C4E70220C8E710B4846864
:103DA00024F47F4442EA03230B43234383605DF8FA
:103DB000044B704790F83C30012B7DD010B5044681
:103DC000012380F83C30022380F83D30026890687F
:103DD0003A4B034093600B68402B59D010D9702B9D
:103DE0003ED01FD8502B49D0602B32D1CA684968C9
:103DF0002068FFF738FC60212068FFF77BFC28E093
:103E0000102B4FD008D9202B51D0302B21D130216D
:103E10002068FFF76FFC1CE0DBB900212068FFF78A
:103E200069FC16E0B3F5805F0ED0B3F5005F10D1EA
:103E3000CB684A6889682068FFF7B0FF22689368FA
:103E400043F48043936004E0226891681C4B0B406C
:103E50009360012384F83D30002084F83C0010BDBD
:103E6000CB684A6889682068FFF798FF22689168E4
:103E7000144B0B4043F077039360EAE7CA68496844
:103E80002068FFF7C3FB50212068FFF733FCE0E711
:103E9000CA6849682068FFF7B9FB40212068FFF72E
:103EA00029FCD6E710212068FFF724FCD1E7202168
:103EB0002068FFF71FFCCCE7022070478800FEFF58
:103EC000F8FFFEFF88FFFEFF90F83C30012B46D044
:103ED00010B50446012380F83C30022380F83D30C1
:103EE0000068826822F070024B6813431D4A1A4032
:103EF0000B68134383604B68502B24D010D9602B80
:103F000027D0702B05D10B698A68C9682068FFF734
:103F100045FF012384F83D30002084F83C0010BDAB
:103F2000402BF6D12368186A1A6A22F001021A623D
:103F30002268936923F0F003096943EA011393614E
:103F400023681862E5E70A6989682068FFF75EFB65
:103F5000DFE70A6989682068FFF785FBD9E7022057
:103F6000704700BFF8FFFEFF10B4012303FA01F40D
:103F7000036A23EA04030362036A8A401343036269
:103F80005DF8044B7047000010B50446012200683C
:103F9000FFF7EAFF23680849084A934218BF8B429B
:103FA00003D15A6C42F400425A642268136843F009
:103FB00001031360002010BD000001400004014017
:103FC00010B504460C290DD8DFE801F0070C0C0CE5
:103FD000170C0C0C1D0C0C0C23000268D36843F06A
:103FE0000203D36001222068FFF7BEFF2268136836
:103FF00043F001031360002010BD0268D36843F052
:104000000403D360EEE70268D36843F00803D3608B
:10401000E8E70268D36843F01003D360E2E70000EA
:1040200070B4036A23F480330362036A4268446D08
:104030000D4D25400C682C4323F400338D6843EA72
:1040400005430A4E0A4DA84218BFB04204D122F4DB
:1040500080324D6942EA0522426044654A688265C1
:10406000036270BC704700BF8FFFFEFF000001407D
:104070000004014070B4036A23F480130362036AEE
:104080004468456D0D4A2A400D6842EA052223F432
:1040900000138D6843EA0553094E0A4DA84218BF24
:1040A000B04204D124F480244D6944EA852444605C
:1040B00042654A68C265036270BC7047FF8FFFFEAD
:1040C000000001400004014090F83C30012B21D059
:1040D00070B4012380F83C3003685A689D680E4E26
:1040E0000E4CA34218BFB34203D122F470024C68B5
:1040F000224322F070020C68224325F08004896874
:1041000021435A6003689960002380F83C301846C8
:1041100070BC70470220704700000140000401405D
:104120007047704738B590F83C30012B00F0928012
:104130000D460446012380F83C30022380F83D30D0
:10414000142A1ED8DFE802F00B1D1D1D241D1D1DA5
:10415000381D1D1D4B1D1D1D5F1D1D1D720000689E
:10416000FFF7B2FC2268936943F008039361226869
:10417000936923F0040393612268936929690B43CF
:104180009361012384F83D30002084F83C0038BD61
:104190000068FFF7C9FC2268936943F400639361E8
:1041A0002268936923F48063936122689369296983
:1041B00043EA01239361E4E70068FFF7E9FC226822
:1041C000D36943F00803D3612268D36923F0040361
:1041D000D3612268D36929690B43D361D1E70068B1
:1041E000FFF70AFD2268D36943F40063D3612268B4
:1041F000D36923F48063D3612268D369296943EAD0
:104200000123D361BDE70068FFF70AFF2268536D01
:1042100043F0080353652268536D23F0040353658C
:104220002268536D29690B435365AAE70068FFF7BD
:1042300021FF2268536D43F4006353652268536D78
:1042400023F4806353652268536D296943EA01238F
:10425000536596E702209AE790F86930DBB2212B8C
:104260002ED1B0F852309BB28BB18368B3F5805F2A
:1042700019D0C36C5A1CC2641A7803689A62B0F8E9
:104280005230013B9BB2A0F85230002070470268C8
:10429000136823F0800313600268136843F040033F
:1042A0001360002070470369002BE2D1C36C1B88A8
:1042B0000268C3F308039362C36C0233C364DEE78E
:1042C000022070470268136823F0C00313602023A4
:1042D00080F8693070470268136823F490731360A4
:1042E0000268936823F001039360202380F86A300A
:1042F000704790F86A30DBB2202B4DD1B2FA82F3CE
:104300005B09002908BF0123002B47D190F86830D2
:10431000012B45D0012380F868304165A0F8582072
:10432000A0F85A208368B3F5805F06D0A3B903696B
:1043300073B9FF23A0F85C3011E0036923B940F2A0
:10434000FF13A0F85C300AE0FF23A0F85C3006E021
:104350007F23A0F85C3002E0B3F1805F12D000232D
:10436000C366222280F86A2080F8683001688A6873
:1043700042F001028A6001680A6842F490720A60A1
:104380001846704703691BB97F23A0F85C30E6E745
:104390003F23A0F85C30E2E702207047012070471D
:1043A0000220704738B590F86950EDB2202D35D114
:1043B000B2FA82F56D09002908BF0125002D2FD121
:1043C00090F86830012B2DD013460446012280F866
:1043D0006820C164A0F85030A0F85230C566212290
:1043E00080F86920026E1048D063226E0F48106476
:1043F000226E0F48D064226E156522682832206E26
:10440000FDF7BAF8236840221A6284F868502268DF
:10441000936843F080039360284600E0022038BD93
:104420000120FCE70220FAE76B450008B9450008C7
:10443000454600082DE9F04105460F4616469846C8
:10444000069C2B68DB6937EA03030CBF01230023BA
:10445000B3421DD1B4F1FF3FF3D02CB1FCF736FFCE
:10446000A0EB0800A042ECD32A68136823F4D073B1
:1044700013602A68936823F001039360202385F872
:10448000693085F86A30002385F86830032000E041
:104490000020BDE8F0812DE9F04182B01E4690F881
:1044A0006930DBB2202B52D104460D469046B2FA59
:1044B00082F35B09002908BF0123002B4CD190F83F
:1044C0006830012B4AD0012380F868300023C3668E
:1044D000212380F86930FCF7F9FE0746A4F85080E4
:1044E000A4F8528003E02A7823689A620135B4F870
:1044F00052309BB2DBB1B4F85230013B9BB2A4F80E
:10450000523000963B46002280212046FFF792FF62
:1045100030BBA368B3F5805FE5D12369002BE2D1FE
:1045200035F8023B2268C3F308039362DFE7009685
:104530003B46002240212046FFF77CFF034688B916
:10454000202284F86920002284F8682000E00223F9
:10455000184602B0BDE8F0810123F9E70223F7E72E
:104560000323F5E70323F3E7704708B5836B02687D
:10457000126812F4807F0DD10022A3F8522019682E
:104580008A6822F080028A601A68136843F0400348
:10459000136008BD1846FFF7E7FFFAE708B50168A2
:1045A0000B6823F040030B60202380F86930FFF78D
:1045B000DBFF002008BD704708B5806BFFF7FBFFED
:1045C00008BDB0F85C2090F86A30DBB2222B32D103
:1045D00010B58368B3F5805F10D00368596AD2B212
:1045E000436D5C1C44650A401A70B0F85A30013BB8
:1045F0009BB2A0F85A306BB1002010BD0369002BAC
:10460000EBD1436D0168496A0A401A80436D023359
:104610004365EAE70268136823F490731360026845
:10462000936823F001039360202380F86A3003F03D
:1046300031FD0020E1E70268936943F008039361CC
:104640000220704710B5846B0023A4F85A30A4F8F8
:10465000523094F86930DBB2212B0CD094F86A30D8
:10466000DBB2222B10D0E36E43F01003E36620464A
:1046700003F0E8FC10BD23689B6813F0800FEDD0B9
:104680002046FFF71FFEE9E723689B6813F0400F01
:10469000E9D02046FFF71FFEE5E7000038B50446E5
:1046A0000268D3691068916813F00F0505D113F003
:1046B000200F02D010F0200F5FD1002D73D011F029
:1046C000010102D110F4907F6DD013F0010F07D0DB
:1046D00010F4807F04D001251562E26E2A43E26661
:1046E00013F0020F07D031B1226802251562E26E85
:1046F00042F00402E26613F0040F07D031B12268E1
:1047000004251562E26E42F00202E26613F0080F21
:1047100009D010F0200F00D129B1226808211162C0
:10472000E26E0A43E266E26E002A48D013F0200FE0
:1047300002D010F0200F24D1E36E13F0080F04D143
:1047400023689B6813F0400F27D02046FFF7C3FD76
:1047500023689A6812F0400F1BD09A6822F040023A
:104760009A60636E8BB11A4A1A65606EFCF73EFF61
:1047700028B3606E036D984721E02046FFF721FFC4
:104780001DE02046FFF71DFFD6E7204603F05AFC48
:1047900015E0204603F056FC11E0204603F052FCE1
:1047A0000023E3660BE013F0800F02D010F0800FBF
:1047B00006D113F0400F02D010F0400F04D138BDE5
:1047C0002046FFF749FDFAE72046FFF7E7FEF6E748
:1047D000D547000808B5806B0023A0F85A30A0F830
:1047E000523003F02FFC08BD10B5044683680269FF
:1047F000134342691343C2691343016808689D4A21
:10480000024013430B602268536823F44053E1686D
:104810000B435360A369226A1A4321688B6823F40F
:10482000306313438B602368934A934219D0934AB1
:1048300093422AD0924A934240D0924A934255D012
:10484000914A93426AD0914A934200F08280904A02
:10485000934200F099808F4A934200F0B08010227A
:10486000C9E002F59432D2F8902002F00302032A44
:1048700003D8DFE802F0BF0604081022BBE00222E2
:10488000B9E00422B7E00822B5E002F5FA32D2F826
:10489000902002F00C020C2A08D8DFE802F0BA07D8
:1048A00007070B070707090707070D001022A2E0FB
:1048B0000222A0E004229EE008229CE002F5F832E9
:1048C000D2F8902002F03002102A0DD005D9202A0B
:1048D00008D0302A04D108228DE00AB900228AE0EB
:1048E000102288E0022286E0042284E002F5F632FB
:1048F000D2F8902002F0C002402A0DD005D9802ABB
:1049000008D0C02A04D1082275E00AB9002272E05A
:10491000102270E002226EE004226CE002F5F43214
:10492000D2F8902002F44072B2F5807F0FD007D900
:10493000B2F5007F09D0B2F5407F04D108225AE0D9
:104940000AB9002257E0102255E0022253E0042267
:1049500051E002F59232D2F8902002F44062B2F5B2
:10496000806F0FD007D9B2F5006F09D0B2F5406F54
:1049700004D108223FE00AB901223CE010223AE0CB
:10498000022238E0042236E002F5E032D2F890202C
:1049900002F44052B2F5805F0FD007D9B2F5005F44
:1049A00009D0B2F5405F04D1082224E00AB9002200
:1049B00021E010221FE002221DE004221BE002F58C
:1049C000DE32D2F8902002F44042B2F5804F0FD090
:1049D00007D9B2F5004F09D0B2F5404F04D10822F3
:1049E00009E00AB9002206E0102204E0022202E0F7
:1049F000042200E00122E169B1F5004F0BD0082A42
:104A000000F29B80DFE802F0616D799983999999B2
:104A10008F000022EFE7082A54D8DFE802F00517DC
:104A200022533F5353534A00FDF7A8FE62685308D0
:104A300003EB4003B3FBF2F39BB2002023F00F0221
:104A4000C3F3420313432268D36010BDFDF7A6FEF3
:104A50006268530803EB4003B3FBF2F39BB2002000
:104A6000ECE762680C4B03EB5203B3FBF2F39BB22F
:104A70000020E3E7F369FFEF00100140004400402D
:104A800000480040004C004000500040001401402D
:104A900000780040007C00400048E801FDF74AFD36
:104AA0006268530803EB4003B3FBF2F39BB20020B0
:104AB000C4E76268530803F58033B3FBF2F39BB29B
:104AC0000020BBE701200023B8E7FDF757FE63682D
:104AD00000EB5300B0FBF3F0236880B2D8600020F5
:104AE000B3E7FDF75BFE636800EB5300B0FBF3F048
:104AF000236880B2D8600020A7E76168104A02EB03
:104B00005102B2FBF1F292B2DA6000209DE7FDF7AC
:104B100011FD636800EB5300B0FBF3F0236880B233
:104B2000D860002091E761684A0802F50042B2FBB4
:104B3000F1F292B2DA60002087E7012085E700BF3A
:104B40000024F400436A13F0010F06D00268536892
:104B500023F40033816A0B435360436A13F0020F5E
:104B600006D00268536823F48033C16A0B43536054
:104B7000436A13F0040F06D00268536823F48023BD
:104B8000016B0B435360436A13F0080F06D00268B1
:104B9000536823F40043416B0B435360436A13F0A3
:104BA000100F06D00268936823F48053816B0B4387
:104BB0009360436A13F0200F06D00268936823F4D1
:104BC0000053C16B0B439360436A13F0400F0AD04C
:104BD0000268536823F48013016C0B435360036C29
:104BE000B3F5801F0BD0436A13F0800F06D0026824
:104BF000536823F40023816C0B43536070470268B1
:104C0000536823F4C003416C0B435360EBE710B5CA
:104C100082B004460023C366FCF758FB2268126882
:104C200012F0080F09D1202384F8693084F86A3023
:104C3000002084F8680002B010BD6FF07E4300933E
:104C4000034600224FF400112046FFF7F3FB002833
:104C5000E9D00320EFE778B310B5044690F8693047
:104C60000BB3242384F869302268136823F001030E
:104C700013602046FFF7B8FD012813D0636ABBB963
:104C80002268536823F4904353602268936823F0AA
:104C90002A0393602268136843F0010313602046DF
:104CA000FFF7B5FF10BD80F8683003F091FDD8E73D
:104CB0002046FFF747FFE3E701207047028881EABB
:104CC0001221034B33F9113083EA0223038070472A
:104CD000340000202DE9F043B3B005460E461746D8
:104CE000002460E05A4B1B78002B63D1584B5B7853
:104CF000002B5FD1564B01221A7052E0544A527871
:104D0000002A5BD110290ED007D988290FD0FF299E
:104D100013D14F4B00221A7043E003290DD14C4BA5
:104D200000221A703DE04A4B00221A7039E0484BCD
:104D300001225A7000221A7033E0454B00225A704B
:104D40001A702EE0002B3FD1DFF804914846012372
:104D500000F8023BFFF7B2FFB9F8043098F80010F2
:104D600032AA1A4402F8C81C0133A9F8043018E02A
:104D70003748002300F8023BFFF7A0FF11E0344B57
:104D800000221A700DE0DFF8C89009F10200FFF769
:104D900095FFB9F8043098F8002032A90B4403F8C5
:104DA000C82C0134A4B2B4424CD205EB0408295DEE
:104DB000102997D0264B1B78012B9FD0244A52787C
:104DC000012AEED11029BDD0012BDCD11029CFD082
:104DD000FF29D4D00329D6D11D4C00232370637042
:104DE000DDE90023C7E90023DDE90223C7E9022347
:104DF000DDE90423C7E90423DDE90601FBF79CFE96
:104E0000B861DDE90A23C7E90C23DDE90C23C7E912
:104E10000E23DDE90E23C7E910239DF8443087F8FF
:104E20004830C3F3400287F8492003F00103D2431E
:104E3000134087F84A300120A7F84C00A3680344C8
:104E4000A36001E0B7F84C0033B0BDE8F08300BFC9
:104E500034040020842801D00330704700207047BC
:104E600008B500F0EFFC002008BDF0B585B00F4696
:104E7000446805680669B0F90800FFF7EBFF03AB6B
:104E8000019300903B46B2B22946204600F038FC20
:104E9000012802D1039805B0F0BD0020FBE708B55A
:104EA00000F060FC002008BD08B5034600B90123EE
:104EB000184600F06FFE002008BD00F108034360B3
:104EC0004FF0FF328260C3600361002303607047CC
:104ED00000230361704743684B609A688A609A6850
:104EE000516099600861036801330360704730B412
:104EF0000D68B5F1FF3F02D000F1080202E002693F
:104F000004E01A4653681C68AC42FAD953684B60F7
:104F100099608A605160086103680133036030BCA6
:104F20007047036942688168916082684168516096
:104F30005A68824205D00022026118680138186060
:104F4000704782685A60F6E710B5044601F0AAF986
:104F5000A26BE36B9A4204D0002401F0C9F9204609
:104F600010BD0124F9E710B5044601F09BF9A36BCD
:104F700023B1002401F0BCF9204610BD0124F9E75B
:104F800070B504461646856B026C5AB903681BB1AE
:104F900000200135A56370BD406800F0D3FF0023F9
:104FA0006360F6E76EB9806809F094FC226CA36830
:104FB0001344A3606268934219D32368A36000205E
:104FC000E7E7C06809F086FC226C5242E3681344AC
:104FD000E36021688B4202D263681A44E260022EC9
:104FE00001D00020D5E725B1013D0020D1E7002008
:104FF000CFE70020CDE7026C72B110B5C36813444F
:10500000C3604468A34201D30368C3600C46C1680F
:10501000204609F05FFC10BD704738B5054601F029
:1050200041F995F8454064B203E000F01DFF013CF2
:1050300064B2002C08DD6B6A33B105F1240000F086
:1050400075FE0028F3D0F0E7FF2385F8453001F026
:105050004FF901F027F995F8444064B203E000F0FD
:1050600003FF013C64B2002C08DD2B6933B105F16C
:10507000100000F05BFE0028F3D0F0E7FF2385F876
:10508000443001F035F938BD38B550B94FF0500310
:1050900072B683F31188BFF36F8FBFF34F8F62B681
:1050A000FEE704460D4601F0FDF82168E26B236C33
:1050B00003FB021060600020A063A160013A02FBC4
:1050C0000313E360FF2384F8443084F84530A5B926
:1050D00023691BB901F00CF9012038BD04F110005F
:1050E00000F024FE0028F5D0084B4FF080521A60E3
:1050F000BFF34F8FBFF36F8FECE704F11000FFF7A2
:10510000DCFE04F12400FFF7D8FEE3E704ED00E045
:1051100010B5029B0C4639B11A60D8631C6401219A
:105120001846FFF7B1FF10BD1B60F6E750B94FF00E
:10513000500372B683F31188BFF36F8FBFF34F8FA5
:1051400062B6FEE7F0B583B0054611B101FB00F091
:1051500000E0002017460C46483001F013FA0646DE
:1051600038B100903B4600F1480221462846FFF73F
:10517000CFFF304603B0F0BDF0B585B0019270B1FD
:105180000446B9B9026CAAB14FF0500372B683F36A
:105190001188BFF36F8FBFF34F8F62B6FEE74FF0FA
:1051A000500372B683F31188BFF36F8FBFF34F8F35
:1051B00062B6FEE7022B0DD1E26B012A0AD04FF056
:1051C000500372B683F31188BFF36F8FBFF34F8F15
:1051D00062B6FEE71E460F4600F04EFE60B9019B28
:1051E00063B14FF0500372B683F31188BFF36F8F32
:1051F000BFF34F8F62B6FEE700253AE0002538E0A6
:10520000324639462046FFF7BBFE636A4BB9A8B168
:105210003B4B4FF080521A60BFF34F8FBFF36F8F3D
:105220000CE004F1240000F081FD38B1344B4FF064
:1052300080521A60BFF34F8FBFF36F8F01F058F8A1
:10524000012005B0F0BD01F053F80020F9E702A8F5
:1052500000F0B0FD012519E0002384F8443021E07E
:10526000002384F8453023E02046FFF7D6FE00F007
:10527000BFFB01F017F8A26BE36B9A42C0D3022E7A
:10528000BED0019B002BDED0002DE0D001F030F825
:1052900000F016FB01F006F894F844305BB2B3F16D
:1052A000FF3FD9D094F845305BB2B3F1FF3FD7D080
:1052B00001F01EF801A902A800F092FDC8B920462D
:1052C000FFF742FE0028CFD0019904F1100000F052
:1052D00011FD2046FFF7A1FE00F08AFB0028C8D18F
:1052E000074B4FF080521A60BFF34F8FBFF36F8FA1
:1052F000BFE72046FFF791FE00F07AFB0020A0E711
:1053000004ED00E02DE9F04184B0019270B1044653
:10531000B9B9026CAAB14FF0500372B683F3118889
:10532000BFF36F8FBFF34F8F62B6FEE74FF05003AE
:1053300072B683F31188BFF36F8FBFF34F8F62B6DE
:10534000FEE71F46884600F097FD60B9019B63B1F8
:105350004FF0500372B683F31188BFF36F8FBFF322
:105360004F8F62B6FEE700265FE000265DE0E6684C
:1053700041462046FFF73FFEDFB9013DA5632368A4
:1053800013B900F03BFE6060236963B104F11000C3
:1053900000F0CCFC38B1464B4FF080521A60BFF39E
:1053A0004F8FBFF36F8F00F0A3FF012004B0BDE863
:1053B000F081E660636A002BF5D004F1240000F070
:1053C000B5FC0028EFD03A4B4FF080521A60BFF383
:1053D0004F8FBFF36F8FE6E700F08AFF0020E5E70D
:1053E00002A800F0E7FC012629E0002384F84430FD
:1053F00031E0002384F8453033E000F053FF60686B
:1054000000F04AFD00F074FF3BE02046FFF705FE88
:1054100000F0EEFA09E02046FFF7FFFD00F0E8FAA1
:105420002046FFF7A0FD002840D100F03BFFA56B10
:10543000002D9CD1019B002BCED0002ED0D000F0AF
:1054400057FF00F03DFA00F02DFF94F844305BB2B6
:10545000B3F1FF3FC9D094F845305BB2B3F1FF3FE1
:10546000C7D000F045FF01A902A800F0B9FC002850
:10547000D1D12046FFF777FD0028C6D02368002B46
:10548000BBD0019904F1240000F034FC2046FFF762
:10549000C4FD00F0ADFA0028C7D1054B4FF0805293
:1054A0001A60BFF34F8FBFF36F8FBEE700207DE719
:1054B00004ED00E0074B9B6A1B6833B1054B9A6A09
:1054C000D268D2685268DA627047024B4FF0FF32FE
:1054D000DA6270474404002010B50446006B01F006
:1054E000D1F8204601F0CEF810BD2DE9F0478046F6
:1054F0009946089D099F0A9C266B6FF04043134410
:1055000006EB830626F0070600230F2B07D8C85C9E
:10551000E21882F83400CA5C0AB10133F5E70023CF
:1055200084F84330062D00D90625E56265644FF006
:10553000000AC4F848A0201DFFF7CAFC04F11800B7
:10554000FFF7C6FC2461C5F10705A5616462C4F8D4
:105550004CA084F850A04A464146304600F07AFEFE
:10556000206007B13C60BDE8F087000070B5002402
:1055700007E004EB8402930010481844FFF79DFCF9
:105580000134062CF5D90E4C04F1BC063046FFF769
:1055900094FC04F1D0052846FFF78FFC04F11400B9
:1055A000FFF78BFC04F1E400FFF787FC2046FFF7D0
:1055B00084FCA662C4F8F85070BD00BF74040020DB
:1055C0004404002038B5054600F06CFE264BD3F8A5
:1055D000FC200132C3F8FC20D3F8003173B1224B18
:1055E000D3F804318BB9204BD3F80031DA6AEB6A77
:1055F0009A420AD81C4BC3F8005106E01A4BC3F874
:105600000051D3F8FC30012B2AD0174CD4F80831C4
:105610000133C4F80831EB6A01229A40D4F80C1126
:105620000A43C4F80C2104F1300003EB83039A0011
:10563000291D1044FFF74FFC00F05AFED4F8043146
:105640006BB1D4F80031DA6AEB6A9A4207D2074BA1
:105650004FF080521A60BFF34F8FBFF36F8F38BD8A
:10566000FFF784FFD1E700BF4404002004ED00E011
:1056700070B504460E46214BD3F81051D3F8000103
:105680000430FFF74EFC60B91C4BD3F80021D16AFF
:10569000012202FA01F1D3F80C2122EA0102C3F837
:1056A0000C21B4F1FF3F14BF00230123002E08BFDB
:1056B000002393B92C44114BD3F800315C60A54210
:1056C00012D80E4DA86AD5F800110431FFF70FFC6F
:1056D000EB6AA34210D9EC620EE00848D0F8001142
:1056E0000431FFF7F8FB07E0044BD3F8F800D3F8D8
:1056F00000110431FFF7FBFB70BD00BF4404002024
:105700002DE9F04385B00746884615469946900036
:1057100000F038FFF8B10646542000F033FF04468D
:10572000A8B10663D4B10023039302940D9B0193A7
:105730000C9B00934B462A4641463846FFF7D5FE60
:105740002046FFF73FFF012005B0BDE8F08330465B
:1057500000F098FFE6E74FF0FF30F5E74FF0FF303D
:10576000F2E7000070B5044600F09CFD002C3DD02F
:10577000261D3046FFF7D5FB88B9E26A02EB8203AB
:1057800099002E4B0B441B6B4BB9012303FA02F219
:105790002A49D1F80C3123EA0203C1F80C31A36A7B
:1057A0001BB104F11800FFF7BCFB244BD3F8082110
:1057B0000132C3F80821D3F80031A3421AD01F4A9E
:1057C000D2F8FC30013BC2F8FC302046FFF784FEE3
:1057D000FFF770FE00F08CFD184BD3F8043123B1B5
:1057E000164BD3F80031A34210D070BD134BD3F841
:1057F0000041BDE7114D314605F1E400FFF76BFBB9
:10580000D5F814310133C5F81431E3E70B4BD3F865
:10581000183153B14FF0500372B683F31188BFF3C0
:105820006F8FBFF34F8F62B6FEE7054B4FF080528C
:105830001A60BFF34F8FBFF36F8FD6E74404002089
:1058400004ED00E000B583B0194B019300230093F1
:10585000802218491848FFF753FF012805D0B0F1FE
:10586000FF3F19D003B05DF804FB4FF0500372B650
:1058700083F31188BFF36F8FBFF34F8F62B60F4B67
:105880004FF0FF32DA620122C3F804210022C3F88C
:10589000102100F0A5FDE5E74FF0500372B683F349
:1058A0001188BFF36F8FBFF34F8F62B6FEE700BF63
:1058B00060050020900A0108395C000844040020BB
:1058C000034AD2F818310133C2F81831704700BFCB
:1058D00044040020014BD3F8100170474404002019
:1058E0002DE9F041414BD3F81831002B6ED13F4BDD
:1058F000D3F810510135C3F81051DDB99B6A1B680C
:1059000053B14FF0500372B683F31188BFF36F8F1A
:10591000BFF34F8F62B6FEE7344B9A6AD3F8F810A4
:105920009962C3F8F820D3F820210132C3F820216E
:10593000FFF7C0FD2D4BDB6AAB423DD900242B4A5B
:10594000D2F80031DB6A03EB830399000A44136B3E
:10595000012B42D9012440E00124244B9B6A1B689F
:1059600063B3224B9B6ADB68DE6873689D422AD36F
:1059700006F104084046FFF7D4FAB36A1BB106F1FA
:105980001800FFF7CEFAF36A01229A40174FD7F8B2
:105990000C110A43C7F80C2107F1300003EB830315
:1059A0009A0041461044FFF796FAF26AD7F80031A0
:1059B000DB6A9A42D0D2D0E70024CEE70B4B4FF0FF
:1059C000FF32DA62BBE7094AD362B8E7074AD2F886
:1059D00024310133C2F824310024044BD3F8283198
:1059E00003B101242046BDE8F08100BF440400203B
:1059F0003A4BD3F8183153B94FF0500372B683F3D2
:105A00001188BFF36F8FBFF34F8F62B6FEE770B59B
:105A100000F048FC314BD3F81821013AC3F81821A3
:105A2000D3F81831002B54D12C4BD3F8FC3023B9C8
:105A3000002400F05DFC204670BD0024274B5B690C
:105A40002BB3264D2B6ADC6804F11800FFF769FAC6
:105A5000261D3046FFF765FAE36A01229A40D5F821
:105A60000C110A43C5F80C2105F1300003EB830348
:105A70009A0031461044FFF72EFAE26AD5F8003159
:105A8000DB6A9A42DAD30122C5F82821D6E70CB1A5
:105A9000FFF710FD114BD3F8244164B1FFF720FF4D
:105AA00018B10E4B0122C3F82821013CF6D10B4B53
:105AB0000022C3F82421094BD3F828315BB1084BED
:105AC0004FF080521A60BFF34F8FBFF36F8F0124E6
:105AD000AFE70024ADE70024ABE700BF440400209B
